:020000040800F2
:20000000A8260020A93100084D1D00084F1D0008531D0008571D00085B1D000800000000B6
:200020000000000000000000000000005F1D0008611D000800000000631D0008651D0008A4
:20004000C3310008C3310008C3310008C3310008C3310008C3310008C3310008C3310008C0
:20006000C3310008C3310008C3310008C3310008C3310008C3310008C3310008C3310008A0
:20008000C3310008C3310008C3310008C3310008455B0008C3310008C3310008C3310008D4
:2000A000C3310008C3310008C3310008C3310008C3310008C3310008C3310008C331000860
:2000C000C3310008C3310008C3310008C3310008C3310008B5300008C3310008C33100084F
:2000E000C3310008C3310008395B0008C3310008C3310008C3310008C3310008C331000880
:20010000C3310008C3310008C3310008C3310008C3310008C3310008C3310008C3310008FF
:20012000C3310008C3310008C3310008C331000800F002F800F06AF80AA090E8000C82449F
:200140008344AAF10107DA4501D100F05FF8AFF2090EBAE80F0013F0010F18BFFB1A43F062
:2001600001031847F0C9000010CA00000A444FF0000C10F8013B13F0070408BF10F8014B83
:200180001D1108BF10F8015B641E05D010F8016B641E01F8016BF9D113F0080F1EBF10F88B
:2001A000014BAD1C0C1B09D16D1E58BF01F801CBFAD505E014F8016B01F8016B6D1EF9D5D8
:2001C0009142D6D3704700000023002400250026103A28BF78C1FBD8520728BF30C148BFE5
:2001E0000B60704766290BF0C581782909F0FC85002070471FB50AF001FA0400002000210D
:200200000AF026FFE0601FBD10B510BD0AF01EFB1146FFF7EFFF00F0E7FB0AF03CFB03B409
:20022000FFF7F2FF03BC02F0F5FE000038B50446FE4B01226946FE48006807F0F4FEFD4904
:2002400008709DF8000038BD10B509F04BFB03F0E8FF09F047FBF84901220868F7A107F020
:2002600005FEF54901224868F5A107F0FFFD10BD1FB50446F34B0FCB8DE80F002146684645
:2002800009F089FE09F02EFB03F0CBFF09F02AFBE94901220868E9A107F0E8FDE649012264
:2002A0004868E7A107F0E2FD11226946E048006807F007FEDF4908701FBDF0B587B0044620
:2002C0000025E1A1E14808F0C1F900260EE0002708E0002006EB860101EBC6012144C855AC
:2002E000781CC7B20D2FF4DB701CC6B2502EEEDB1AE001A9D54808F0EBF9A0B99DF80D0003
:2003000000B912E09DF80C0020280DD105EB850101EBC50108190D220DF10D0109F047FEA9
:20032000681CC5B200E000E0E3E700BF284607B0F0BD2DE9F04700240025002602F065F89C
:2003400018B1012002F039FE16E04FF070510020BF4AC2E900104FF40070BE490860084640
:20036000D0F800C0104662460023D0E90071384609F0F6FCB8490860B84800884EF6167185
:20038000884202D0012002F018FE4FF4FA7002F014FE002005F02FFC4FF4967002F00DFE61
:2003A000012005F028FC4FF4007003F0C6FFAC490860402003F0C1FFAA49086005F0E6FBF7
:2003C00005F0C4FB04F08AFD012002F0F6FDA6480078814506D0A4480078A3480078A24835
:2003E00090F80090A1480068824510D09F480068052808D0642E06DB9DA20321002002F0B1
:200400000AFCBDE8F0879948006800F0FF0A681CC5B2701C06B2C82D1CD1002597480068EB
:2004200008B9012000E00020944908608E48007800F0100020B1002405208C49086006E00A
:20044000601CC4B20A2C02DD00208849086000208549087000BFD4E770B5054688A202219F
:20046000192002F0D8FB86A20421192002F0D3FB83A20621192002F0CEFB01240FE0284676
:200480006B1C1DB200EB800303EBC000804BC2186006010E192002F0BEFB601CC4B2042CCA
:2004A000EDDB70BD10B50446022000EB4400C1B278A2002002F0AFFB24B1012C0DD0022C91
:2004C00021D115E06CA20421002002F0A4FB6AA20621002002F09FFB16E067A20221002030
:2004E00002F099FB64A20621002002F094FB0BE061A20221002002F08EFB5FA204210020B6
:2005000002F089FB00E000BF00BF10BD10B504466006010E5FA2002002F07DFB012C02D02C
:20052000022C0CD105E054A20421002002F073FB06E051A20221002002F06DFB00E000BF1B
:2005400000BF10BD10B50446022C06DC0020FFF783FF2046FFF7A6FF05E0A01EFFF77CFF43
:200560000220FFF79FFF10BD08B50121084603F057F90121484802F068FF0121474802F0DA
:2005800064FF0121082003F04BF94FF40040ADF8000048208DF8030003208DF80200694606
:2005A0003F4802F081FE4FF48040ADF8000048208DF8030003208DF802006946384802F0E0
:2005C00073FE4FF40050ADF8000048208DF8030003208DF802006946314802F065FE4FF418
:2005E0008050ADF8000048208DF8030003208DF8020069462A4802F057FE4FF40060ADF83C
:20060000000048208DF8030003208DF802006946234802F049FE4FF48060ADF800004820BD
:200620008DF8030003208DF802003BE01C04002064050020000000205C050020303A000099
:20064000313A00004CC10008000000002C2000203802002040020020440200202600002046
:200660005C0200200C0300206002002004040020202020202020202020200000A0012142DF
:2006800020202020202020202020202000000000740500202D3E0000000430000002300070
:2006A000000C01406946FE4802F0FEFD4FF48070ADF8000048208DF8030003208DF8020099
:2006C0006946F74802F0F0FD4FF40070ADF8000048208DF8030003208DF802006946F04874
:2006E00002F0E2FD08BD08B50121102003F098F84FF40050ADF8000028208DF8030069461B
:20070000E84802F0D1FD08BD08B50121042003F087F84FF4C060ADF8000004208DF80300FB
:200720006946E14802F0C0FD08BD10B54FF48051DB4802F04CFE002857D1322002F03DFC68
:200740004FF48051D64802F042FE002848D137E04FF40071D24802F03AFE10B9322002F0D8
:200760002CFC4FF40071CE4802F031FE60B900BF4FF40071CA4802F02AFE0028F8D002209C
:20078000CA4908700A2010BD4FF48071C44802F01EFE10B9322002F010FC4FF48071C04834
:2007A00002F015FE60B900BF4FF48071BC4802F00EFE0028F8D00220BC4908700B20E2E7A3
:2007C0004FF48051B64802F002FE0028C0D0B7480078002804DDB5480078401EB349087096
:2007E000B248007808B90720CDE70020B04908704FF40041AA4802F0EAFD10B90820AC4925
:2008000008704FF48041A64802F0E1FD10B90420A74908704FF40051A14802F0D8FD10B93C
:200820000320A34908704FF400619D4802F0CFFD10B902209E4908704FF48061984802F0AA
:20084000C6FD10B901209A4908704FF40071944802F0BDFD10B90520954908704FF48071DC
:200860008F4802F0B4FD10B90620914908709048007878B38F4800788D490978884207D0FB
:200880008B4800788B49087000208B4908707AE789480078401C8849087008460078052813
:2008A00019DB08460078052802D1814800786AE78148007840280ED17F48007823387E4903
:2008C00008707B480078082801D109205BE77848007858E701E0002055E7002075490870EE
:2008E0007549087000BF4EE710B504460BE02178724803F035F900BF8021704803F09EF9BE
:200900000028F9D0641C20780028F0D110BD1CB500200190009002F015FE6948006840F0B8
:2009200001006749086000BF6548006800F0020000900198401C0190009818B90198B0F51B
:20094000A06FF1D15E48006800F0020010B10120009001E0002000900098012843D159484D
:20096000006840F01000574908600846006820F0030008600846006840F0020008605048AE
:2009800040684F4948600846406848600846406840F4806048600846406820F47C104860E1
:2009A0000846406840F4201048600846006840F08070086000BF4248006800F000700028BE
:2009C000F9D03F48406820F003003D4948600846406840F00200486000BF3948406800F036
:2009E0000C000828F9D11CBDAAB001202990FFF78EFF4FF4A06003F07BF902F0A1FA01F039
:200A0000A3FA01F0C9FA02F0D5F902F062F8FFF7ABFDFFF78EFCFFF766FE4FF4967002F0C6
:200A2000CCFA002013907AE027A20221002002F0F2F8002012902EE0129820B926A20221AD
:200A4000002002F0E8F81298012804D125A20221002002F0E0F81298022804D124A2022196
:200A6000002002F0D8F81298032804D123A20221002002F0D0F81298042804D122A2022196
:200A8000002002F0C8F84FF4967002F096FA1298401CC0B2129012980528CDDB13983BE05A
:200AA000000C01400010014000080140080000200C0000200D0000200E0000200038014027
:200AC00000100240002002402020202020202020202020202020200077616974696E672E61
:200AE0000000000077616974696E672E2E00000077616974696E672E2E2E00007761697475
:200B0000696E672E2E2E2E0077616974696E672E2E2E2E2E00000000401CC0B213901398EA
:200B2000022881DB4FF40051F74802F050FC012802D101F0CEFF0DE0F448007850B9012099
:200B4000F24908704FF4E13002F068FAF0A0FFF7CBFE19E009E0FFF7D7FDEFA2022100206B
:200B600002F059F80020E94908704FF40051E64802F02DFC0128EED04FF4E13002F04EFA16
:200B8000E3A0FFF7B1FE00BFE7A20021084602F042F8E5A20221002002F03DF8E2A20421B0
:200BA000002002F038F8E0A20621002002F033F8E2480223802200210090084602F0C9F86A
:200BC0002998012802D0022822D110E0DC4805235022022100901E2002F0BBF8D9480823AC
:200BE0005022052100901E2002F0B3F811E0D64808235022052100901E2002F0AAF8D348A3
:200C000005235022022100901E2002F0A2F800E000BF00BFC3E0CE480068052802D101F04D
:200C200058FF06E0CB48007818B90120C9490870AAE70AE0C848082350220321009028204C
:200C400002F087F80020C3490870C14800680528F0D04FF40051AC4802F0B9FB012802D1F7
:200C600001F037FF0AE0A948007838B90120A74908704FF4E13002F0D1F985E709E0FFF725
:200C800043FDA5A20221002001F0C5FF00209F4908704FF400519C4802F099FB0128EED070
:200CA000FFF743FDAD490870022002F086F9AB480078032830D12998012803DD2998401E7D
:200CC000C0B229902998012802D0022822D110E09B4805235022022100901E2002F039F88F
:200CE000984808235022052100901E2002F031F811E0954808235022052100901E2002F017
:200D000028F8924805235022022100901E2002F020F800E000BF00BF90480078042830D169
:200D20002998022803DA2998401CC0B229902998012802D0022822D110E081480523502277
:200D4000022100901E2002F004F87E4808235022052100901E2001F0FCFF11E07A48082393
:200D60005022052100901E2001F0F3FF774805235022022100901E2001F0EBFF00E000BF66
:200D800000BF76480078072809D12998012802D0022802D100E003E0F8E300BF00BF3AE75F
:200DA000012013906EA012906EA011900120109000200F9001200E9019200D9000200C903F
:200DC0000B900A9009900890079006900590049003900290019054A20021084601F01BFF31
:200DE00051A20221002001F016FF4FA20421002001F011FF4CA20621002001F00CFF5A48AD
:200E00000223802200210090084601F0A2FF57480423162202210090002001F09AFF544883
:200E20000823162206210090002001F092FF51480423662202210090502001F08AFF4E487B
:200E40000823662206210090502001F082FF4B4806234C2204210090362001F07AFF484817
:200E600006238022042100906A2001F072FF45480623662204210090502001F06AFF4248BF
:200E800008238022062100906A2001F062FF3F4804234C22022100901E2001F05AFFF3E3C5
:200EA0002B480068052802D101F013FE06E02948007818B901202749087065E60AE0264809
:200EC0000823502203210090282001F042FF0020204908701E4800680528F0D04FF40051F7
:200EE000094802F074FA012802D101F0F2FD4FE00648007838B90120044908704FF4E13045
:200F000002F08CF840E643E0001001400A00002024580D0A0000000075736220636F6E6EEC
:200F20006563742120000000202020202020202020202020202020200000000090B90008E3
:200F400026BB0008BCBB000852BC000890BA00080404002009000020E8BD00080B00002098
:200F6000313000003130300090B8000878B50008D0B5000828B6000880B6000830B700085A
:200F8000D8B6000888B7000864B8000835C000080AE0FFF7B9FBAFF280020221002001F068
:200FA0003AFE0020FC4908704FF40051FB4802F00EFA0128EDD0FFF7B8FBF94908700A20D8
:200FC00001F0FBFFF64800780D2876D2DFE800F075FEFDFCFBFAF9F8F7070BD3F600F1A087
:200FE000FFF782FCD0E50E98032803DA0E98401CC0B20E900E9830B1012831D002285DD000
:2010000003287DD188E0EB4804234C22022100901E2001F09EFEAFF2B80011900F98F0B167
:201020001398012803D0E448007801280FD100201390E1490870E1A0FFF756FCE1A0FFF7B7
:2010400053FC1198FFF750FCD9A0FFF74DFCDE480623662204210090502001F07AFE88E0D1
:20106000DA4804234C22022100901E2001F071FEAFF2101011900F98F0B11398012803D017
:20108000CD48007801280FD100201390CA490870CAA0FFF729FCCBA0FFF726FC1198FFF7C5
:2010A00023FCC3A0FFF720FCC7480623662204210090502001F04DFE5BE0E6E2C448042345
:2010C0004C22022100901E2001F043FEC1A011900F9800B31398012803D0B74800780128DC
:2010E00011D100201390B4490870B4A0FFF7FCFBB4A0FFF7F9FB1198FFF7F6FBACA000E09B
:2011000036E0FFF7F1FBB0480623662204210090502001F01EFE2CE0AF4804234C22022141
:2011200000901E2001F015FEACA011900F98F0B11398012803D0A048007801280FD1002078
:2011400013909D4908709DA0FFF7CEFB9DA0FFF7CBFB1198FFF7C8FB95A0FFF7C5FB9A486A
:201160000623662204210090502001F0F2FD00E000BF00BF8AE20E98002803DD0E98401E3D
:20118000C0B20E900E9830B101283BD0022866D003287DD191E0874804234C220221009023
:2011A0001E2001F0D6FDAFF2482011900F9840B3139801280DD08048007808E0ACE017E18C
:2011C000ABE048E22EE214E2FAE1E0E1C5E101280FD1002013907849087078A0FFF784FB80
:2011E00078A0FFF781FB1198FFF77EFB70A0FFF77BFB75480623662204210090502001F04D
:20120000A8FD87E0714804234C22022100901E2001F09FFDAFF2B42011900F98F0B11398ED
:20122000012803D06448007801280FD1002013906149087061A0FFF757FB62A0FFF754FB10
:201240001198FFF751FB5AA0FFF74EFB5E480623662204210090502001F07BFD5AE05C48A7
:2012600004234C22022100901E2001F072FD59A011900F9800B31398012803D04E480078DF
:20128000012811D1002013904B4908704BA000E03FE0FFF729FB4BA0FFF726FB1198FFF7CF
:2012A00023FB43A0FFF720FB47480623662204210090502001F04DFD2CE0474804234C224C
:2012C000022100901E2001F044FD44A011900F98F0B11398012803D03748007801280FD177
:2012E000002013903449087034A0FFF7FDFA35A0FFF7FAFA1198FFF7F7FA2DA0FFF7F4FA75
:2013000031480623662204210090502001F021FD00E000BF00BFB9E1B8E10F98C043C0B2C2
:201320000F900F98A8B91398012803D022480078012806D1002013901F49087029A0FFF71B
:20134000D3FA2A480623662204210090502001F000FD0F98F0B11398012803D016480078C5
:2013600001280FD1002013901349087013A0FFF7BBFA14A0FFF7B8FA1198FFF7B5FA0CA019
:20138000FFF7B2FA10480623662204210090502001F0DFFC7AE100000A00002000100140DB
:2013A0000B000020473932205830205930205A300D0A0000D9BF0008F20100206D330D0AD4
:2013C0000000000073000000B4B7000835C0000891C0000835303000EDC0000831303030C6
:2013E000000000006D30350D0A00000088B700081098042804DA1098401CC0B2109001E014
:20140000012010901098012806D002282CD0032851D0042876D176E0AFF2BC4012900F9843
:20142000C8B11398012803D0FE480078012812D100201390FB490870AFF28000FFF754FADE
:20144000AFF28000FFF750FA1198FFF74DFAAFF2A000FFF749FAF44808238022062100900B
:201460006A2001F076FC76E0F0A012900F98C8B11398012803D0EB480078012812D1002059
:201480001390E8490870AFF2CC00FFF72DFAAFF2CC00FFF729FA1198FFF726FAAFF2F000A0
:2014A000FFF722FAE24808238022062100906A2001F04FFC4FE0DFA012900F98C8B113988B
:2014C000012803D0D7480078012812D100201390D4490870AFF21C10FFF706FAAFF21C1085
:2014E000FFF702FA1198FFF7FFF9AFF23C10FFF7FBF9D14808238022062100906A2001F074
:2015000028FC28E026E0CDA012900F98C8B11398012803D0C3480078012812D10020139071
:20152000C0490870AFF26C10FFF7DEF9AFF26C10FFF7DAF91198FFF7D7F9AFF28C10FFF7B8
:20154000D3F9BF4808238022062100906A2001F000FC00E000BF00BF98E01398012803D040
:20156000B0480078012810D100201390AD490870B4A0FFF7B9F9B5A0FFF7B6F91298FFF72A
:20158000B3F9AFF2D410FFF7AFF97FE098E11398012803D0A3480078012810D100201390CD
:2015A000A0490870A7A0FFF79FF9AAA0FFF79CF91298FFF799F9AFF20820FFF795F965E05C
:2015C0001398012803D097480078012810D100201390944908709BA0FFF786F99FA0FFF706
:2015E00083F91298FFF780F9AFF23C20FFF77CF94CE01398012803D08A480078012810D1C7
:2016000000201390874908708EA0FFF76DF995A0FFF76AF91298FFF767F9AFF26C20FFF784
:2016200063F933E01398012803D07E480078012810D1002013907B49087082A0FFF754F9E8
:201640008AA0FFF751F91298FFF74EF9AFF2A020FFF74AF91AE01398012803D071480078CD
:20166000012810D1002013906E49087075A0FFF73BF980A0FFF738F91298FFF735F9AFF279
:20168000D020FFF731F901E018E100BF00BF7B480078072847D2DFE800F046040F1A2530E0
:2016A0003B0001200690764806238022042100906A2001F04EFB37E0012005907148062387
:2016C0004C2204210090362001F043FB2CE0012004906D480423662202210090502001F029
:2016E00038FB21E00120039068480823662206210090502001F02DFB16E00120029064480A
:201700000423162202210090002001F022FB0BE0012001905F48082316220621009000200B
:2017200001F017FB00E000BF00BF0698012803D10C98401CC0B20C900598012803D10B9862
:20174000401CC0B20B900498012803D10A98401CC0B20A900398012803D10998401CC0B276
:2017600009900298012803D10898401CC0B208900198012803D10798401CC0B20790DDE9D3
:201780000C0188420ADD002006900C90424806238022042100906A2001F0DBFA0D990B9896
:2017A00088420ADD002005900B903C4806234C2204210090362001F0CCFA0D990A98884239
:2017C0000ADD002004900A9035480423662202210090502001F0BDFA0D99099888420ADDE5
:2017E0000020039009902F480823662206210090502001F0AEFA0D99089888420ADD00209C
:201800000290089028480423162202210090002001F09FFA0D99079888424FDD0020019086
:20182000079043E0F201002064B80008302E3100E0B70008310000000CB800083500000057
:2018400038B800086739310D0A0000006730207800000000673020782D00000067302079ED
:2018600000000000673020792D0000006730207A000000006730207A2D0000000B00002051
:2018800004B700085CB7000854B60008ACB60008A4B50008FCB50008D8B6000830B700084F
:2018A00028B6000880B6000878B50008FE480823162206210090002001F04BFAFFF7F0BA79
:2018C000FEF7C2FC00202890F848FEF7F6FC28900020279000BFAFF6B0120021084601F041
:2018E0009AF9AFF6BC120221002001F094F9AFF6C8120421002001F08EF9AFF6D412062133
:20190000002001F088F9EA480223802200210090084601F01EFA2798C0B21390FEF712FE5B
:201920007EE0E4480068052802D101F0D2F807E0E148007820B90120DF490870FFF724B905
:201940000AE0DE480823502203210090282001F000FA0020D8490870D64800680528F0D0C7
:201960004FF40051D64801F032FD012802D101F0B0F80AE0D348007838B90120D1490870DF
:201980004FF4E13001F04AFBD8E70AE0FEF7BCFEAFF67C220221002001F03DF90020C94986
:2019A00008704FF40051C64801F011FD0128EDD0FEF7BBFEC4490870052001F0FEFAC248DD
:2019C000007803280ED12798401E00B227902798002802DA2898401E27902798C0B2139093
:2019E000FEF7B0FDB848007804280FD12798401C00B227902898401E2799884201DA00209A
:201A000027902798C0B21390FEF79CFDAE480078072800D105E0AC480078082800D18DE779
:201A20007FE7AFF6FC220021084601F0F4F8AFF608320221002001F0EEF8AFF61432042128
:201A4000002001F0E8F8AFF620320621002001F0E2F89EA20021084601F0DDF89F48062307
:201A6000352203210090142001F073F99C480623672203210090462001F06BF95EE08D48B2
:201A80000068052802D101F024F806E08A48007818B901208849087050E70AE0874808234B
:201AA000502203210090282001F053F9002082490870804800680528F0D04FF4005180489F
:201AC00001F085FC012802D101F003F80AE07D48007838B901207B4908704FF4E13001F0F2
:201AE0009DFA2BE70AE0FEF70FFEAFF6D4320221002001F090F80020724908704FF4005103
:201B00006F4801F064FC0128EDD0FEF70EFE6E490870052001F051FA6B480078072808D113
:201B200070480623672203210090462001F011F905E065480078082800D1CCE69FE700BF24
:201B4000279800EB800101EBC000584908441390FEF78EFBAFF2B470FEF7C6FE00BF002043
:201B6000259061480068C0682690279800EB800101EBC0004D4908441390FEF779FB0020DC
:201B8000179000BF00BFAFF660420021084601F042F856A20021084601F03DF8CDE0454878
:201BA0000068052805D100F094FF53A0FEF79CFE06E04148007818B901203F490870BDE639
:201BC0000AE03E480823502203210090282001F0C0F8002138480170364800680528F0D06E
:201BE0000120FEF723FB18AA179950541798401CC0B217903C48006880683B490968C9687D
:201C0000884201D1012000E0002000B163E62598401C25901798401E18A9085C0A2842D1C8
:201C20001798801E085C0D283DD118A8FEF75CFE0020179007E0002118AA1798115417984D
:201C4000401CC0B2179017983228F4DB0020179067E0FEF76AFD1C490870042001F0ADF935
:201C600019480078092803D123A0FEF73DFE32E6269809F021FC0E90259809F01DFC0D909D
:201C80000E9909F057FB0F9009F028FB00221C4BCDE9100109F024FACDE9120109F0EEF987
:201CA000149014982EE048E0D0B5000874050020E8BC00080404002009000020E8BD0008CE
:201CC000001001400A0000200B000020526561647920746F207072696E740000B0BE0008A3
:201CE00013BF000876BF0008640500205072696E7465643A000000006D320D0A000000007E
:201D00000000594009F0EAFA02460B46CDE912010AA115A808F054F815AA0021502000F0FF
:201D20007AFF0848007818B907480078002890D00020044908700449087030E7252E326696
:201D400025250000F2010020F3010020704700BFFEE700BFFEE700BFFEE700BFFEE7704714
:201D600070477047704700000CB50020019000906C48006840F480306A49086000BF6948B1
:201D8000006800F4003000900198401C0190009818B90198B0F5A06FF1D16248006800F423
:201DA000003010B10120009001E0002000900098012843D15C48006840F010005A490860C4
:201DC0000846006820F0030008600846006840F00200086053484068524948600846406806
:201DE00048600846406840F4806048600846406820F47C1048600846406840F4E810486081
:201E00000846006840F08070086000BF4548006800F000700028F9D04248406820F003003A
:201E2000404948600846406840F00200486000BF3C48406800F00C000828F9D10CBD10B532
:201E4000FFF792FF10BD10B53648006840F001003449086008464068344908403149486090
:201E600008460068324908402E4908600846006820F4802008600846406820F4FE00486088
:201E80004FF41F008860FFF7DAFF4FF000602949086010BD10B5002100200022214B5B688C
:201EA00003F00C0121B1042906D0082928D107E0214B224C236027E01F4B204C236023E07C
:201EC000184B5B6803F47010164B5B6803F48032022303EB904022B9194B4343174C23600A
:201EE0000DE0104B5B6803F4003323B1144B4343124C236003E0104B4343104C236003E08D
:201F00000D4B0E4C236000BF00BF064B5B68C3F303130C4CE15C094B1B68CB40074C2360E1
:201F200010BD000000100240002002400000FFF8FFFFF6FE08ED00E000127A0010000020A6
:201F400000093D001400002008B50121242001F067FC4FF48070ADF8000010208DF8030000
:201F600003208DF802006946094801F09DF94FF48071074801F045FA0420ADF80000694605
:201F8000044801F091F90421024801F03AFA08BD000801400014014008B50121142001F07F
:201FA0003FFC0121374801F050FA4FF40040ADF8000048208DF803006946334801F074F96A
:201FC0002020ADF8000048208DF8030069462F4801F06AF90120ADF8000028208DF803001C
:201FE0006946294801F060F908BD10B5044614B10120274908702648007868B32021234828
:2020000001F0E5F958B14FF400411F4801F0DFF928B101211C4801F0DAF901281CD10A20D1
:2020200000F0CBFF00201A4908702021174801F0CEF908B9012010BD4FF40041124801F015
:20204000C6F908B90220F6E701210F4801F0BFF9012815D10320EEE720210C4801F0B7F9A2
:2020600001280DD1C103084801F0B1F9012807D10121054801F0ABF910B9012004490870F6
:202080000020D8E70002300000080140001001402400002070B50546002405E0601CC4B2E6
:2020A000C82C01DD002070BD02212F4801F0DDFF0028F3D029462C4801F084FF002405E04F
:2020C000601CC4B2C82C01DD0020ECE70121264801F0CBFF0028F3D0234801F075FFC0B2D1
:2020E000E1E708B5012141F2040001F099FBE020ADF8000018208DF8030003208DF802006E
:2021000069461A4801F0D0F8E021184801F079F90020174908804FF4827048800020888004
:202120000220C8800120088140024881382088810020C881072008820B4801F06DFE012134
:20214000094801F00EFFFF20FFF7A4FF08BD10B50446074884810146034801F05DFE012150
:20216000014801F0FEFE10BD00300140000801408E09002010B504462046FFF78BFF10BD29
:2021800010B53820FFF7E3FF10BD10B50020FFF7DEFF10BD08B50121042001F041FB1C208C
:2021A000ADF8000010208DF8030003208DF802006946F64801F078F81C21F44801F021F946
:2021C000FFF78FFF0120F249086008BD10B50120EF490860FF20FFF7CDFF10BD10B50024D5
:2021E00000BFFF20FFF7C6FFFF2801D1002010BD641C6FF07F408442F3D30120F7E710B572
:202200000020E3490860FFF7E9FF08B9002010BDFFF7DCFF0120FAE770B505464FF6FF7483
:2022200001E0601E84B2FF20FFF7A4FFA84201D0002CF6D10CB9FF2070BD0020FCE770B56A
:2022400004460D46FE20FFF7E7FF08B1012070BD04E0FF20FFF71EFF2070641C2800A5F1FC
:2022600001018DB2F5D1FF20FFF784FFFF20FFF781FF0020EBE770B506460D46FFF7AEFFD1
:2022800008B1012070BD2846FFF774FFFD2D19D0002404E0305DFFF7FDFE601C84B2B4F56C
:2022A000007FF7DBFF20FFF765FFFF20FFF762FFFF20FFF75FFF044604F01F00052801D010
:2022C0000220DFE70020DDE72DE9F04105460C4617464FF00008FFF779FFFFF790FF10B1F6
:2022E000FF20BDE8F08145F04000FFF743FF200EFFF740FFC4F30740FFF73CFFC4F307208C
:20230000FFF738FFE0B2FFF735FF3846FFF732FF0C2D02D1FF20FFF72DFF4FF01F0800BFBD
:20232000FF20FFF727FF064606F0800030B15FEA0800A8F1010101F0FF08F1D13046D0E7EC
:2023400070B50546012200210A20FFF7BDFF044624B910212846FFF772FF0446FFF736FF4B
:202360000CB1012070BD0020FCE770B50546012200210920FFF7A8FF044624B9102128460F
:20238000FFF75DFF0446FFF721FF0CB1012070BD0020FCE77FB56846FFF7E7FF10B10020DE
:2023A00004B070BD9DF8000000F0C000402809D19DF809009DF8081000EB0120401C84B2CC
:2023C000A50220E09DF8050000F00F009DF80A1000EBD1109DF8091001F0030100EB410073
:2023E000861C9DF8080080119DF8071000EB81009DF8061001F0030100EB8120441CA6F1D2
:20240000090004FA00F52846CAE7F8B5FFF7C2FEFFF7B6FE002504E0FF20FFF7ABFE681C49
:2024200085B20A2DF8DB142600BF952200210846FFF74AFF0446012C04D03000A6F10101E9
:202440008EB2F2D1002053490870012C4AD187224FF4D5710820FFF737FF012847D1002511
:2024600006E0FF20FFF786FE0DF80500681C85B2042DF6DB9DF80200012879D19DF8030074
:20248000AA2875D14FF6FE7600BF012200213720FFF71AFF012291072920FFF715FF0446AA
:2024A00024B13000A6F101018EB2EED1002E5FD0012200213A20FFF707FF002858D1002512
:2024C00006E0FF20FFF756FE0DF80500681C85B2042DF6DB9DF8000000F0400018B1062032
:2024E0002C49087044E004202A49087040E0012200213720FFF7E8FE012200212920FFF7A2
:20250000E3FE0446012C17DC0220224908704FF6FE7600BF012200213720FFF7D5FE01226C
:2025200000212920FFF7D0FE0446BCB13000A6F101018EB2EED111E00120164908704FF6C0
:20254000FE7600BF012200211046FFF7BDFE044624B13000A6F101018EB2F3D12EB101220F
:2025600051021020FFF7B0FE10B1002009490870FFF72CFEFFF709FE0648007808B10020CD
:20258000F8BD0CB12046FBE7AA20F9E7000801408C012142250000202DE9F04106460F4671
:2025A00015463C480078062800D07F02012D0CD1012239461120FFF787FE0446FCB9690282
:2025C0003046FFF73CFE044619E0012239461220FFF77AFE044600BF4FF400713046FFF7A7
:2025E0002EFE044606F50076681EC0B2050001D0002CF1D0012200210C20FFF765FEFFF77A
:20260000E5FD2046BDE8F0812DE9F04106460F46154620480078062800D07F02012D0CD1AF
:20262000012239461820FFF74FFE04466CBBFE213046FFF720FE044627E016480078012813
:2026400009D0012200213720FFF73EFE012229461720FFF739FE012239461920FFF734FEDB
:20266000044694B900BFFC213046FFF704FE044606F50076681EC0B2050001D0002CF2D002
:20268000FD210020FFF7F7FD0446FFF79FFD2046BDE8F0812500002010B500240020D24951
:2026A00008609020FFF7F6FC0020FFF7F3FC0020FFF7F0FC0020FFF7EDFCFF20FFF7EAFC19
:2026C00044EA0024FF20FFF7E5FC04430120C749C1F88801204610BD08B50121042001F0D1
:2026E0009FF81C20ADF8000010208DF8030003208DF802006946BE4800F0D6FD1C21BC4847
:2027000000F07FFEFFF7EDFC0820FFF720FDFFF7C3FFB849088008BD10B500240020B24928
:2027200008600520FFF7B6FCFF20FFF7B3FC04460120AE49C1F88801204610BD10B50446BA
:202740000020A94908600120FFF7A4FC2046FFF7A1FC0120A549C1F8880110BD10B500204C
:20276000A14908600620FFF795FC01209F49C1F8880110BD10B500209B4908600420FFF7F7
:2027800089FC01209949C1F8880110BD2DE9F04106460C4617460020934908600320FFF7E3
:2027A00079FCC4F30740FFF775FCC4F30720FFF771FCE0B2FFF76EFC002505E0FF20FFF7ED
:2027C00069FC7055681C85B2BD42F7DB012086490860BDE8F08110B500BFFFF79DFF00F0CF
:2027E00001000028F9D110BD2DE9F04106460C461746FFF7B3FF00207B4908600220FFF7CB
:2028000049FCC4F30740FFF745FCC4F30720FFF741FCE0B2FFF73EFC002504E0705DFFF79F
:2028200039FC681C85B2BD42F8DB01206E490860FFF7D1FFBDE8F0812DE9F04107460E46D2
:202840001446F0B2C0F58075AC4200DC254612E02A4631463846FFF7C7FFAC4200D10BE0E0
:202860002F442E44601B84B2B4F5807F02DD4FF4807500E02546EBE700BFBDE8F08110B54C
:20288000044621465CA007F08FFA2403FFF766FFFFF7A1FF0020544908602020FFF7FAFBA3
:2028A000C4F30740FFF7F6FBC4F30720FFF7F2FBE0B2FFF7EFFB01204C49C1F88801FFF712
:2028C0008AFF10BD2DE9F05F8346884616464FF4805001F032FD8246BAF1000F01D1BDE81E
:2028E000F09F4FEA1837C8F30B09C9F58054A64200DC344641E039034FF480525046FFF724
:2029000045FF002508E009EB05001AF80000FF2800D003E0681C85B2A542F4DB00BFA5426A
:2029200015DA3846FFF7ABFF002507E01BF8050005EB09010AF80100681C85B2A542F5DBF7
:2029400039034FF480525046FFF776FF04E0224641465846FFF770FFA64200D10EE07F1C0D
:202960004FF00009A344A044301B86B2B6F5805F02DD4FF4805400E03446BCE700BF5046EF
:2029800001F0CFFC00BFAAE710B5FFF7E7FEFFF722FF002014490860C720FFF77BFB01201B
:2029A0001249C1F88801FFF716FF10BD10B500200D490860B920FFF76DFB01200B49C1F89A
:2029C0008801032000F0D5FA10BD10B5002006490860AB20FFF75EFB01200449C1F8880159
:2029E000032000F0C6FA10BD8801214200002142000801402600002066653A25780D0A00A0
:202A000070B504460E4626B10221FE4800F0F9FC03E00221FB4800F0F6FC1021FA4800F040
:202A2000F2FC002517E00121F74800F0ECFC04F0800020B10221F44800F0E3FC03E00221DA
:202A4000F14800F0E0FC0121EF4800F0DAFC6006040E681CC5B2082DE5DB1021EA4800F097
:202A6000D0FC0221E74800F0CCFC70BD70B504460D4605F1B001C8B20021FFF7C1FF102168
:202A800041EA14100021FFF7BBFF04F00F0141F001000021FFF7B4FF70BD10B500218D2056
:202AA000FFF7AEFF00211420FFF7AAFF0021AF20FFF7A6FF10BD10B500218D20FFF7A0FFFF
:202AC00000211020FFF79CFF0021AE20FFF798FF10BD70B5002419E004F1B001C8B2002148
:202AE000FFF78EFF00210846FFF78AFF00211020FFF786FF002505E001210020FFF780FFD8
:202B0000681CC5B2802DF7DB601CC4B2082CE3DB70BD2DE9F04107460E4690460025002423
:202B2000A8F12000C5B27F2F02DD0027B01CC6B231463846FFF79AFF002408E004EB0511D8
:202B4000B24A505C0121FFF75BFF601CC4B2082CF4DB701CC1B23846FFF788FF002409E05F
:202B600004EB05110831A94A505C0121FFF748FF601CC4B2082CF3DBBDE8F08110B5024602
:202B8000012000E050430B00A1F10104E1B2F9D110BD2DE9FF5F074691461D460E9E4FF0EF
:202BA000000A002433E0281B401EC1B20A20FFF7E5FFB9FBF0F00A21B0FBF1F201FB120859
:202BC000BAF1000F13D1681EA04210DDB8F1000F0BD1B34606EBDB71491001FB0471C8B2F4
:202BE00020220199FFF795FF0FE04FF0010AB34606EBDB71491001FB0471C8B208F1300192
:202C0000CAB20199FFF785FF00BF601CC4B2AC42C9DBBDE8FF9F2DE9F04104460F4615465D
:202C200000260EE0AA5D39462046FFF772FF04F10800C4B2782C02DD0024B81CC7B2701C3A
:202C4000C6B2A85D0028EDD1BDE8F0812DE9F04180460E461546002731464046FFF706FF20
:202C600000240AE06A4A02EB8511085D0121FFF7C7FE781CC7B2601CC4B2102CF2DB701C39
:202C8000C1B24046FFF7F2FE00240CE06900491C5F4A02EB4111085D0121FFF7B1FE781CCF
:202CA000C7B2601CC4B2102CF0DBBDE8F0812DE9F05F06460F4690461C46DDF828A04FF072
:202CC000000BE11704EB5171C910A4EBC10131B92046E11704EB5171C1F3C70506E0204651
:202CE000E11704EB5171C910491CCDB23D4615E029463046FFF7BAFEB1460BE059460BF1E6
:202D0000010B1AF801000121FFF77AFE09F1010000F0FF09C145F1DB681CC5B2A542E7DB9B
:202D2000BDE8F09F70B504460D4605F1B001C8B20021FFF765FE102141EA14100021FFF76B
:202D40005FFE04F00F0141F001000021FFF758FE70BD2DE9F05F05460E4617469846DDF832
:202D600028B04FF00009CA460024E11704EB5171C910A4EBC10101B901E0601CC4B2344625
:202D800014E021462846FFF7CDFFAA460AE01BF809000121FFF734FE09F101090AF1010068
:202DA00000F0FF0ABA45F2DB601CC4B24445E8DBBDE8F09F08B50121042000F031FD132088
:202DC000ADF8000010208DF8030003208DF8020069460D4800F068FA13210B4800F011FB13
:202DE0000121082000F01CFD40F20310ADF8000010208DF8030003208DF80200694601483C
:202E000008E00000000C01400008014084C300082800002000F048FA40F20311474800F0A6
:202E2000F0FA0121454800F0ECFA642000F0C5F80121424800F0E7FAC82000F0BEF80121C5
:202E40003E4800F0DEFA0021AE20FFF7D9FD00210846FFF7D5FD00211020FFF7D1FD0021FC
:202E60004020FFF7CDFD00218120FFF7C9FD0021CF20FFF7C5FD0021A120FFF7C1FD002135
:202E8000C820FFF7BDFD0021A620FFF7B9FD0021A820FFF7B5FD00213F20FFF7B1FD002131
:202EA000D320FFF7ADFD00210846FFF7A9FD0021D520FFF7A5FD00218020FFF7A1FD002150
:202EC000D920FFF79DFD0021F120FFF799FD0021DA20FFF795FD00211220FFF791FD002110
:202EE000DB20FFF78DFD00214020FFF789FD00212020FFF785FD00210220FFF781FD0021A9
:202F00008D20FFF77DFD00211420FFF779FD0021A420FFF775FD0021A620FFF771FD00211A
:202F2000AF20FFF76DFD0021AF20FFF769FDFFF7D0FD00210846FFF799FD08BD000C014046
:202F400010B56FF0040000F022FF2E4800682E49B0FBF1F02D4908700846007800EB400177
:202F6000C1EBC0104FF6FF7101EAC0002849088010BD0146254A12784A434FF0E0235A61E5
:202F800000229A611A46126942F001021A6100BF4FF0E022106900F001021AB100F48032AC
:202FA000002AF5D04FF0E022126922F001024FF0E0231A6100229A6170470146144A128881
:202FC0004A434FF0E0235A6100229A611A46126942F001021A6100BF4FF0E022106900F056
:202FE00001021AB100F48032002AF5D04FF0E022126922F001024FF0E0231A6100229A61C3
:20300000704700001000002000127A00E8010020EA01002000BF70470246704710B586B0B9
:203020000446012144F2040000F0FAFB4FF40070ADF8140003208DF8160018208DF8170007
:2030400005A9534800F030F94FF48060ADF8140004208DF8170005A94D4800F025F92520DC
:203060008DF8000003208DF801008DF8020001208DF80300684600F040FE01940020ADF8BC
:203080000800ADF80A00ADF80C00ADF810000C20ADF80E0001A93F4800F069FC012240F259
:2030A00025513C4800F0FBFC01213A4800F0EBFC06B010BD10B540F22551364800F0D4FD85
:2030C000002864D0334800F04FFDC4B232480088C0F30D0031490C5408462F490988405CD8
:2030E0006B2824D12C480088401E2C49085C6F281DD129480088801E085C0A2817D126480D
:203100000088C01E085C0D2811D123480088001F085C6B280BD120480088401F085C6F289F
:2031200005D106201C49088001201D4908701B4819490988405C72281ED117480088401EE7
:203140001649085C6F2817D113480088801E085C722811D110480088C01E085C72280BD134
:203160000D480088001F085C652805D106200A49088001200B49087007480088401C06491C
:20318000088008460088C72801DD0020088010BD0008014000380140F0010020A0090020F3
:2031A000F2010020F30100200948804709480047FEE7FEE7FEE7FEE7FEE7FEE7FEE7FEE710
:2031C000FEE7FEE704480549054A064B70470000471E000831010008A8200020A8260020B7
:2031E000A8220020A822002010B50446CC48844208D10121042000F02DFB0021042000F0A6
:2032000029FB46E0C748844208D10121082000F021FB0021082000F01DFB3AE0C248844225
:2032200008D10121102000F015FB0021102000F011FB2EE0BD48844208D10121202000F012
:2032400009FB0021202000F005FB22E0B848844208D10121402000F0FDFA0021402000F09E
:20326000F9FA16E0B348844208D10121802000F0F1FA0021802000F0EDFA0AE0AE488442F0
:2032800007D10121801500F0E5FA0021A01500F0E1FA10BD10B50121084600F0DBFA002147
:2032A000012000F0D7FA10BD2DE9F041024600250026002000230024002791F803C00CF0AF
:2032C0000F0591F803C00CF0100CBCF1000F03D091F802C04CEA050591F800C0BCF1000F57
:2032E00031D0146800202BE04FF0010C0CFA00F3B1F800C00CEA03069E4220D183004FF0E6
:203300000F0C0CFA03F7BC4305FA03FC4CEA040491F803C0BCF1280F06D14FF0010C0CFAFE
:2033200000FCC2F814C00AE091F803C0BCF1480F05D14FF0010C0CFA00FCC2F810C0401CBF
:203340000828D1D31460B1F800C0BCF1FF0F34DD546800202EE000F1080C4FF0010808FAB7
:203360000CF3B1F800C00CEA03069E4221D183004FF00F0C0CFA03F7BC4305FA03FC4CEA04
:20338000040491F803C0BCF1280F05D100F1080C08FA0CF8C2F8148091F803C0BCF1480F76
:2033A00007D100F1080C4FF0010808FA0CF8C2F81080401C0828CED35460BDE8F0814FF65C
:2033C000FF710180022181700421C17070470246002093680B400BB1012000E00020704799
:2033E0000146886880B2704702460020D3680B400BB1012000E0002070470146C86880B282
:20340000704701617047416170470AB1016100E041617047C16070474FF480320A43826130
:203420008161826182698269704702460020434B18684FF68073184040EA021008433F4B23
:20344000186070473E49C8617047F0B50A46002300240021002500F00046B6F1004F02D155
:20346000364EF16901E0354E7168C0F3034583B200F44016B6F5401F08D121F070612F4E75
:20348000766826F070662D4F7E6012E000F48016B6F5801F06D1032606FA05F4A14341F034
:2034A000706106E0460D360103FA06F6B14341F0706122B1460D360103FA06F6314300F022
:2034C0000046B6F1004F02D11C4EF16101E01B4E7160F0BD30B500228B071C0F0F2303FA66
:2034E00004F2164B08338C1053F824309343134C08348D1044F8253023468C1053F82430BC
:203500008C07240F00FA04F423430C4C08348D1044F8253030BD0A49DC310860704700005F
:2035200000080140000C0140001001400014014000180140001C01400020014000000140F7
:2035400000002042DF48006840F00100DD49086008464068DC490840DA49486008460068D7
:20356000DA490840D74908600846006820F4802008600846406820F4FE0048604FF41F0074
:2035800088607047CF49096821F48031CD4A11601146096821F480211160B0F5803F03D08F
:2035A000B0F5802F0ED106E0C649096841F48031C44A116007E0C349096841F4A021C14AA8
:2035C000116000E000BF00BF704710B501460022002300204A11012A02D1BA4C236806E024
:2035E000022A02D1B74C236A01E0B64C636A01F01F02012494401C400CB1012000E0002047
:2036000010BD38B5002000900024002500BF3120FFF7DBFF05460098401C00900098B0F50B
:20362000A06F01D0002DF2D03120FFF7CEFF08B1012400E00024204638BD01460020A14A18
:20364000106820F0F80040EAC10010607047A04908607047024600209A4B586820F47C1023
:2036600042EA01031843974B5860704798490866704701460020934A506820F0030008430E
:20368000506070478F48406800F00C007047014600208C4A506820F0F000084350607047EA
:2036A00001460020874A506820F4E06008435060704701460020834A506820F4605040EA3A
:2036C000C1005060704729B17E4A527A02437D4B5A7204E07B4A527A82437A4B5A727047F9
:2036E0007B49D8310860704701460020754A506820F440400843506070470021714A20328C
:203700001170704A82F82010012802D004280AD104E001216B4A2032117005E00521694A76
:203720002032117000E000BF00BF70476949086070476449096A0143624A116270476549E8
:2037400044390860704730B500210022002400235C4D6D6805F00C0121B1042905D00829D9
:2037600023D105E05C4D056022E05B4D05601FE0544D6D6805F47012524D6D6805F4803442
:20378000022505EB92421CB9544D554305600BE04C4D6D6805F400351DB1504D55430560DC
:2037A00002E04D4D5543056002E04B4D056000BF00BF444D6D6805F0F0010909484D6B5C79
:2037C0000568DD4045603F4D6D6805F4E061090A434D6B5C4568DD4085603A4D6D6805F4B1
:2037E0006051C90A3E4D6B5C4568DD40C560354D6D6805F44041890B3A4D6B5CC568B5FB74
:20380000F3F5056130BD29B12E4A526902432D4B5A6104E02B4A526982432A4B5A61704728
:2038200029B1284A92690243264B9A6104E0254A92698243234B9A61704729B1214AD269DD
:203840000243204BDA6104E01E4AD26982431D4BDA61704729B11B4AD2680243194BDA607B
:2038600004E0184AD2688243164BDA60704729B1144A12690243134B1A6104E0114A126926
:203880008243104B1A61704712494039086070470F49C86470470B49C87170470948406A69
:2038A00040F0807007494862704701460020054A92680A400AB1012000E000207047014960
:2038C00088727047001002400000FFF8FFFFF6FE000042428004424200127A0000093D009E
:2038E000F40100200402002010B50446FB48844209D101218803FFF7ADFF00214FF4804028
:20390000FFF7A8FF32E0F648844209D101214804FFF7ADFF00214FF40030FFF7A8FF25E0D4
:20392000F048844209D101218804FFF7A0FF00214FF48020FFF79BFF18E0EB48844209D10D
:203940000121C804FFF793FF00214FF40020FFF78EFF0BE0E548844208D101210805FFF70E
:2039600086FF00214FF48010FFF781FF10BD2DE9F04786B005460E460024A24600BFA146B7
:203980000027B08900B100BF2F462C8A4CF6FF700440F08804432C82AC894EF6F31004400A
:2039A000B08831890843718908430443AC81AC8A4FF6FF400440B0890443AC8201A8FFF7C6
:2039C000C2FEC648874202D1DDF810A001E0DDF80CA0A88900F4004040B10AEBCA0000EB96
:2039E0000A1031684900B0FBF1F807E00AEBCA0000EB0A1031688900B0FBF1F86420B8FB9F
:203A0000F0F004012009642101FB1089A88900F4004040B1322000EBC900B0FBF1F000F0A6
:203A20000700044308E0322000EB09106421B0FBF1F000F00F0004432C8106B0BDE8F08724
:203A40004FF41651016000218180C18001810C21418100218181704710B502460020108AE6
:203A60004FF2FF0318400B884C8823438C882343CC8823431843108210BD0021018041808D
:203A80008180C180704721B1828942F40052828104E082894DF6FF731A4082817047F0B568
:203AA0000346002400260025002040F66A17B94200D100BF1846C1F3421401F01F06012746
:203AC00007FA06F5012C01D10C3004E0022C01D1103000E014301AB107682F43076002E072
:203AE0000768AF430760F0BD1AB1838A0B43838202E0838A8B4383827047028A4FF6F07379
:203B00001A400282028A0A430282704782894FF2FF731A40828182890A438281704721B1B4
:203B2000828942F00202828104E082894FF6FD731A4082817047028A4FF6DF731A40028288
:203B4000028A0A430282704721B1028A42F48042028204E0028A4BF6FF731A4002827047BF
:203B6000C1F308028280704701468888C0F308007047818941F0010181817047028BD2B2FE
:203B80000283028B42EA012202837047028B02F47F420283028B0A430283704721B1828ACB
:203BA00042F02002828204E0828A4FF6DF731A408282704721B1828A42F01002828204E007
:203BC000828A4FF6EF731A408282704721B1828A42F00802828204E0828A4FF6F7731A4006
:203BE0008282704721B1828942F40042828103E08289C2F30E028281704721B1828A42F431
:203C00000062828204E0828A4FF2FF731A4082827047828A4FF6FB731A408282828A0A4310
:203C20008282704721B1828A42F00202828204E0828A4FF6FD731A4082827047024600208F
:203C4000B1F5007F00D100BF13880B400BB1012000E00020704701F40072B2F5007F00D1D7
:203C600000BFCA430280704770B50246002400230025002040F66A16B14200D100BFC1F359
:203C8000421501F01F03012606FA03F3012D02D19689334006E0022D02D1168A334001E02E
:203CA000968A33400C12012606FA04F41688344013B10CB1012000E0002070BD10B500226C
:203CC000002340F66A14A14200D100BF0A1201249440A3B2DC43048010BD00000038014047
:203CE0000044004000480040004C00400050004031490143314A1160704770B500210023D2
:203D00000F22C47804B32D4C246804F4E064C4F5E064210AC1F10403CA40447804FA03F1A5
:203D20008478144021430901254C0678A155047804F01F050124AC4005786D11AD0005F19D
:203D4000E025C5F8004109E0047804F01F050124AC401C4D0678761145F8264070BD1A4A30
:203D60000A400243154B1B1F1A60704739B1134A121D12680243114B1B1D1A6006E00F4A67
:203D8000121D126882430D4B1B1D1A607047042808D14FF0E021096941F004014FF0E022C6
:203DA000116107E04FF0E021096921F004014FF0E0221161704700000000FA050CED00E0A0
:203DC00000E400E080E100E080FFFF1F10B50446BE48844208D101218014FFF73BFD002188
:203DE000A014FFF737FD16E0B948844208D101210014FFF73CFD00212014FFF738FD0AE080
:203E0000B448844207D10121C013FFF730FD0021E013FFF72CFD10BD10B50022028802F489
:203E200041520B884C8823438C882343CC8823430C8923434C8923438C892343CC89234382
:203E40001A430280838B4FF2FF74234083830B8A038210BD2DE9F04F85B005460C464FF00B
:203E6000000902274FF000084FF0010B0026B246A88B4FF240010840A88302202884B5F8BD
:203E80001C90A068022801D100BF38E0A08810B94FF0010B01E04FF0020B8D48854200D1C5
:203EA00000E000BF6846FFF74EFCDDF800A0E088B0F5007F0AD14FEA1A2000EB800040007B
:203EC000A168B0FBF1F0401D86B20BE04FEA4B10BAFBF0F000EB80004000A168B0FBF1F064
:203EE000401D86B20A20B6FBF0F606F00108A6EB0800C0F34F074FF6FF7000EA0828022FCC
:203F000001DBFF2F02DD02274FF00008E08840EA080038432884A088A189084361880843B6
:203F20002188084340F4006040EA0909A5F81C9005B0BDE8F08F0021018041808180C180F6
:203F4000018141818181C1810721018270470021018041808180C1800221816000218181AB
:203F6000704721B1028842F04002028004E002884FF6BF731A400280704721B1828B42F4AB
:203F80008062828304E0828B4FF6FF331A408283704730B5002400230C110125A540ABB20B
:203FA0001AB185881D43858002E085889D43858030BD1AB183880B43838002E083888B4321
:203FC00083807047818170470146888970474FF6FF62914204D0028842F48072028004E0FA
:203FE00002884FF6FF631A400280704721B1828842F00402828004E082884FF6FB731A40EC
:204000008280704702884FF2FF731A40028002880A4302807047018841F4805101807047F7
:2040200021B1028842F40052028004E002884DF6FF731A400280704702460020012901D001
:20404000108B00E0908A70470146088A7047B1F5804F04D1028842F48042028004E00288C8
:204060004BF6FF731A40028070470246002013890B400BB1012000E000207047CA43028187
:204080007047F0B50246002000240023002501F00F070126BE40B4B20B1101269E40B3B2D8
:2040A000968806EA03051689264016B10DB1012000E00020F0BD10B5002201F00F04012383
:2040C000A3409AB2D343038110BD00000030014000380040003C0040002044490860091DAA
:2040E0000860091D0860091D086041483F4914310860704700213D498279002A3AD00A46A1
:20410000126803689A430B461A600A1D126803689A430B1D1A60027911440A6803681A437D
:204120000A60324A0832126803689A432F4B08331A601A1D126803689A432C4B0C331A6045
:204140004279102A0ED11A1F126803681A43274B08331A601A1D126803681A43234B0C33C3
:204160001A600DE02149427911440A6803681A430A6005E0027911440A6803689A430A60E1
:2041800070470021016001710C2141710021817170471649103109680143144A1032116065
:2041A000704701460020114A143212680A400AB1012000E0002070470C4914310860704730
:2041C000014600200022094B1B6803EA0102074B14331B680B4013B10AB1012000E0002088
:2041E00070470249143108607047000000040140FFFF0F0070B503460C4603E014F8015BFC
:2042000003F8015B1500A2F10102F7D170BD30B5034601E003F8011B1400A2F10102F9D10D
:2042200030BD00B558494FF4A072C8680021FFF7EEFF55494FF4A05288680021FFF7E7FFF2
:2042400001205149087400BD0022002106E04E48C06830F8110000B1521C491CA029F6D334
:2042600064205043A023B0FBF3F0C0B270472DE9F04106460024A0464348007C10B94249B5
:20428000086880471EB94FF0FF30BDE8F081C6F34F1506F01F0008B1681C85B29F241AE029
:2042A0003948C06830F8140020B908F101001FFA80F801E04FF00008A8450BD1002705E0B8
:2042C0003148C068E11920F811507F1CAF42F7D36001DAE7641E002CE2DA4FF0FF30D4E7BF
:2042E00070B505462848007C20B9274908688047012070BDB5F5A05F11D269092248C06804
:2043000030F81120002406E000201F4BDB680E1923F81600641C9442F6DB0020E9E70220DC
:20432000E7E770B5044604B970BD17488068251A2846FFF7D5FF00BFF6E770B5054628461E
:20434000FFF795FF0446601C08B9002070BD0E4880682044FAE770B506460C462046FFF75D
:2043600086FF0546681C08B9002070BD06498968481922463146FFF73DFF3046FFF7D1FFED
:20438000014880682844F0E70802002010B504462CB90120F64909680882002010BDF54905
:2043A000096808688047F24800680A30F6E710B5EF480068C078F0494978884213DCEC4819
:2043C0000068807878B9EA480068808858B9E8480068C078E64909688872E64909684868DF
:2043E0008047002010BD0220FCE710B504462CB90120DF4909680882002010BDDD49096848
:2044000088688047DA4800680C30F6E710B5D84B1B68D978D64B1B685879D84B1B689A6968
:2044200090470446D2480068807AE8B13CB9D0480068007918B9CE480068807808B1022036
:2044400010BD8CB9CB490968C8688047C84800684079C7490968C872C5480068C078C44928
:20446000096808730020EBE70220E9E710B504462CB90220BE4909680882002010BD002047
:20448000BF490880BA480068007800F07F0018BBB7490968487A00F0200131B1B8490978C0
:2044A00041F00201B64A117005E0B549097801F0FD01B34A117000F0400131B1B0490978E9
:2044C00041F00101AE4A117005E0AD49097801F0FE01AB4A11703AE0A5480068007800F097
:2044E0007F00012801D1A648C8E7A1480068007800F07F00022828D19D4A1268517901F02E
:204500000F0001F080027AB19E4B03EB8002D2F8002C02F03002102A16D1994A127842F0BB
:204520000102974B1A700FE0964B03EB8002D2F8002C02F44052B2F5805F05D1904A12788E
:2045400042F001028E4B1A7001E0002096E789490968086980478A4890E72DE9F047844868
:204560000068007800F07F08B8F1000F0AD180480068407A00F0DF007D4909684872002087
:20458000BDE8F087B8F1020F7ED179480068408818B977480068007908B10220F0E7DFF80B
:2045A000D89173480068477927F080052C4670480068407900F0800038B1724901EB840044
:2045C000D0F8000C00F0300606E06E4901EB8400D0F8000C00F4405699F80000A84204D91E
:2045E0001EB163480068807A08B90220C8E707F0800080B1634901EB8400D0F8000C00F0C5
:20460000300010284BD1E0B201F01DF8E0B2302100F09FFE43E05B4901EB8400D0F8000C03
:2046200000F44050B0F5805F39D1E4B9564A92F82C10E0B201F091F8524A02EB8401D1F882
:20464000001C4BF68F7201EA020080F4805080F4005040F4004141F080014A4B03EB8402D7
:20466000C2F8001C1BE0E0B200F0D5FF454A02EB8401D1F8001C4BF68F7201EA020080F48A
:20468000805080F4005000E00FE040F4004141F080013C4B03EB8402C2F8001C00BF354982
:2046A00009684869804700206AE700BF022067E72DE9F0412E480068467926F080073C466E
:2046C0002B480068407900F0800038B12D4901EB8400D0F8000C00F0300506E0294901EBCA
:2046E0008400D0F8000C00F4405523480078A04208D91F480068408820B91DB11C48006829
:20470000807A10B90220BDE8F08106F08000A0B11C4A02EB8401D1F8001C48F6BF7201EAC0
:20472000020080F0100040F4004141F08001154B03EB8402C2F8001C14E0124A02EB840164
:20474000D1F8001C4BF68F7201EA020080F4805040F4004141F080010A4B03EB8402C2F857
:20476000001C00BF03490968886980470020CAE7240200203002002075030020280200209E
:204780001C020020005000407803002010B5F7480068407A40F02000F44909684872F44995
:2047A0000968C8698047002010BD10B50246EF480068438A32B98888C01AEC4C24682082EF
:2047C000002010BD08681844FBE72DE9F041E748006800F110042688A068C0B1BEB1A58898
:2047E000B54200D93546A8B2A168884707462088401B2080608828446080002000F07FFF8A
:204800008046AAB24146384600F03EFD00BF208850B14FF44050D74908800021084600F004
:204820007AFF3020D44908802088A188884204DB0320CE490968087218E02088002804DDC2
:204840000520CA490968087210E0208870B90620C649096808720021C848006880B2801CED
:20486000C74A42F810103020C3490880BDE8F0812DE9F047BD48006800F110052E88BB485A
:204880000068077AD6B9042F18D1BE48007801280FD10021B948006880B2801CB84A42F869
:2048A00010103020B449088000BF0020B549087003E007271020B049088027E0AC88A642C9
:2048C00001D8042000E002200746B44200D93446A0B2A96888478046002000F005FF814670
:2048E000A2B24946404600F0B5FCA1B2002000F012FF2888001B288068882044688030203B
:204900009D49088000029B49088000BF974909680F72BDE8F08770B50226944800684478C1
:2049200092480068007800F07F00002844D1092C03D1FFF73CFD06465FE0052C14D18B4865
:204940000068C0787F280BDC88480068807838B986480068808818B984480068807A08B112
:20496000082565E0002648E0032C0ED17F480068C078012807D17D480068808818B9FFF705
:2049800005FF064639E0022637E0012C35D177480068C07801280DD174480068808848B9A9
:2049A00072480068407A00F0200018B1FFF7D5FD064622E0022620E06C480068007800F080
:2049C0007F00012805D10B2C17D1FFF71FFD064613E066480068007800F07F0002280BD1E6
:2049E000012C03D1FFF7B9FD064606E0032C04D1FFF75EFE064600E002264EB1E0B2624AF1
:204A00001268516988470646032E01D109250FE00EB108250CE0062500215848006880B2C9
:204A2000801C574A42F8101030205349088000BF4E4909680D7270BD2DE9F84F4B480068A0
:204A400045780027BA46062D1BD148480068007800F07F00002813D1444909688878012841
:204A600003D149490968CF690AE0022803D1464909680F6A04E0032802D1434909684F6A2E
:204A8000ADE0002D67D1394800684088002862D136480068C08802285DD134480068007935
:204AA000002858D131480068007800F07F0030B92E480068808810B9AFF24F678FE02B480C
:204AC0000068007800F07F00012811D12749096848792D4909688A690021904700287ED191
:204AE00022480068807A002879D0AFF27F6776E01E480068007800F07F0002286FD11B481A
:204B00000068407900F00F0618480068407900F0700916480068407900F0800038B11B4949
:204B200001EB8600D0F8000C00F0300806E0174901EB8600D0F8000C00F44058144800781B
:204B4000B0424CD9B9F1000F49D1B8F1000F46D0AFF2E76743E0082D1CD10448006800783D
:204B600000F07F00D8BBAFF2DB7738E024020020300200203402002036020020505C0040F6
:204B8000006000401E0200202802002000500040750300200A2D22D1C5480068007800F0BC
:204BA0007F0001281BD1C2480068807AB8B1C0480068408898B9BE480068007978B9BC48E7
:204BC0000068C08801280AD1B94909684879B94909688A690021904708B9AFF2F17757B1BD
:204BE000B3480068A0F812A0B148006887610020B84700240FE0AE4A12685078AD4A1268E2
:204C0000116988470446032C05D10920A84909680872BDE8F88FA6480068008A4FF6FF7136
:204C2000884204D10920A24909680872F1E7022C03D09F480068008A20B908209C490968CD
:204C40000872E6E79A480068007800F08000E0B397480068C088009095480068008A0099C1
:204C6000884204D9924900980968088223E090480068008A8E490968C98888421BDA8C4826
:204C80000068008A8B49096891F82C10884203DA0020894908700EE085480068008A85498C
:204CA000096891F82C1090FBF1F201FB120010B90120814908707F48006890F82C107C485F
:204CC00000688182FFF7D4FD07E0FFE7032078490968087200037949088000BF99E710B5B5
:204CE000774890F82C10002000F037FD70480068007A082805D140027049088010207149E0
:204D000008806B480068007A092801D1012010BD0020FCE738B501246B48006880B2001D06
:204D20006A4931F8100080B201EB4000009060480068007A092832D0009800785C490968B6
:204D400008700098401C0090009800785849096848700098401C0090009800EB44000090A2
:204D6000009931F8020B009100F0A0FE504909684880009800EB44000090009931F8020B4D
:204D8000009100F093FE4A4909688880009800EB440000900098008845490968C880012016
:204DA00043490968087242480068C08810B9FFF7B2FD01E0FFF740FEFFF791FF38BD30B55F
:204DC0000146434B1A78002014E00306414C04EB9353D3F8003C48F68F74234048F2800484
:204DE0002343C4B2234304063A4D05EB9454C4F8003C401C9042E8D341F08003324C241FB2
:204E0000236030BD10B52A480068047A022C01D0042C05D1FFF72CFD25480068047A1CE092
:204E2000062C19D122480068407805280ED120480068007800F07F0040B91D490968C878F9
:204E4000FFF7BDFF24490968086A80471949096888688047082400E00824154909680C727A
:204E6000FFF73DFF10BD10B511480068047A022C01D0042C01D1082412E0032C01D0052CDF
:204E800005D1FFF7A2FC0A480068047A08E0072C05D108490968C8688047082400E008248E
:204EA000034909680C72FFF71AFF10BD7047000024020020280200201E02002034020020FE
:204EC0007803002036020020505C00400060004075030020005000403002002010B50848C4
:204EE00008490860022009680872074807490860074808490860054909680868804710BD1A
:204F0000A81F0020240200207803002028020020A80300203002002008B50020009022E1F2
:204F2000C448008800F00F00C34908700846007800287CD1C1480068C14908800846008846
:204F400000F03000BF490880BD48008800F44050BB490880B94909684BF6BF7201EA020032
:204F600080F4005080F0200040F4004141F08001B24A1160AF48008800F0100090BB104629
:204F8000006848F60F71084011460860FFF73AFFAA4909684BF6BF7201EA0200A849098870
:204FA00001F4805109B180F48050A549098801F4005109B180F40050A249098801F010016C
:204FC00009B180F010009F49098801F0200109B180F0200081B241F4004141F08001974A86
:204FE000116008BDFFE79548006880B20090BDF8000000F40060B0B390480068C0F30E0021
:2050000048F68F7108408D490860FFF783FE8B4909684BF6BF7201EA02008949098801F459
:20502000805109B180F480508549098800E056E001F4005109B180F400508249098801F01B
:20504000100109B180F010007E49098801F0200109B180F0200081B241F4004141F08001F6
:20506000764A1160BDE7FFE7BDF8000000F40040002878D071480068C0F30E0048F68F71FC
:2050800008406E490860FFF7EEFE6C4909684BF6BF7201EA02006A49098801F4805109B17E
:2050A00080F480506649098801F4005109B180F400506449098801F0100109B180F010002E
:2050C0006049098801F0200109B180F0200081B241F4004141F08001584A116081E75648C6
:2050E0000078594901EB8000D0F8000C80B20090BDF8000000F40040C0B14F48007801EB3F
:205100008000D0F8000CC0F30E0048F68F710840494909784C4A02EB8101C1F8000C464988
:205120000978491E494A52F821008047BDF8000000F08000B8B140480078434901EB80003C
:20514000D0F8000C48F60F7108403B4909783E4A02EB8101C1F8000C37490978491E3C4AC6
:2051600052F82100804735484430006880B23149088000F4004000287FF4D2AE00BF30E74B
:2051800010B500244AE047F6FF702C49443108602848008800F00F00274908700846007859
:2051A000294901EB8000D0F8000C84B204F40040C8B12148007801EB8000D0F8000CC0F382
:2051C0000E0048F68F7108401B4909781E4A02EB8101C1F8000C18490978491E1B4A52F8C2
:2051E000210080471AE004F08000B8B112480078154901EB8000D0F8000C48F60F7108407A
:205200000D490978104A02EB8101C1F8000C0A490978491E0E4A52F82100804707484430A1
:20522000006880B20349088000F400400028AAD110BD00003803002020020020005C004023
:20524000340200203602002000500040580300203C030020F0B5144604F1010C4FEA6C0789
:20526000DFF848C00CEB41033D460AE00678401C90F800C046EA0C2223F8022B9B1C401CCC
:205280006D1E002DF2D1F0BDF0B5561C7510074E06EB41042B4605E034F8047B20F8017B2A
:2052A000401C5B1E002BF7D1F0BD000000600040FA4908607047F948006880B27047F749A5
:2052C000091D08607047F548001D006880B27047F2480830006880B27047F0490C3108603D
:2052E0007047EE480C30006880B270474FF6F8710140EA4A103211607047E84810300068CF
:2053000080B27047E64B03EB8002C2F8001C70470146E34A02EB8100D0F8000C80B27047D7
:2053200010B5DF4B03EB8002D2F8002C48F68F131A400A43DA4C04EB8003C3F8002C10BD45
:205340000146D74A02EB8100D0F8000C00F4C060704730B5D24C04EB8003D3F8003C48F61E
:20536000BF7403EA040201F010030BB182F0100201F020030BB182F0200242F4004343F0B3
:205380008003C74D05EB8004C4F8003C30BD30B5C34C04EB8003D3F8003C4BF68F7403EA7F
:2053A000040201F480530BB182F4805201F400530BB182F4005242F4004343F08003B84D1B
:2053C00005EB8004C4F8003C30BD30B503460C461846FFF79DFF0546012C07D125F48050CB
:2053E000AF4A02EB8301C1F8000C08E0022C06D125F01000AA4A02EB8301C1F8000C30BD55
:205400000146A74A02EB8100D0F8000C00F0300070470146A24A02EB8100D0F8000C00F4D2
:205420004050704710B59E4B03EB8002D2F8002C48F6BF7302EA030181F0100181F020019D
:2054400041F4004242F08002954C04EB8003C3F8002C10BD10B5924B03EB8002D2F8002C12
:205460004BF68F7302EA030181F4805181F4005141F4004242F08002894C04EB8003C3F8C0
:20548000002C10BD864A02EB8001D1F8001C41F4807148F68F72114048F280021143804B5F
:2054A00003EB8002C2F8001C70477D4A02EB8001D1F8001C48F68F62114048F28002114345
:2054C000774B03EB8002C2F8001C7047744A02EB8001D1F8001C48F68F62114048F28002C0
:2054E00011436F4B03EB8002C2F8001C70476C4A02EB8001D1F8001C41F4807148F68F7233
:20550000114048F280021143654B03EB8002C2F8001C7047624A02EB8001D1F8001C41F449
:20552000807148F68F72114048F2800211435C4B03EB8002C2F8001C7047594A02EB800125
:20554000D1F8001C48F68F62114048F280021143534B03EB8002C2F8001C70470146504A5A
:2055600002EB8100D0F8000C00F03000102801D1012070470020FCE70146494A02EB81009C
:20558000D0F8000C00F44050B0F5805F01D1012070470020FCE7424A02EB8001D1F8001CA3
:2055A000C1F30E0148F68F7211403D4B03EB8002C2F8001C70473A4A02EB8001D1F8001C3C
:2055C00048F60F721140364B03EB8002C2F8001C7047334A02EB8001D1F8001C48F68F722E
:2055E00011404CF2800211432D4B03EB8002C2F8001C70472A4A02EB8001D1F8001C48F6CC
:205600008F72114048F2C0021143254B03EB8002C2F8001C7047224A02EB8001D1F8001CBC
:2056200001F4804171B102EB8001D1F8001C48F68F7211404CF280021143194B03EB8002C7
:20564000C2F8001C7047164A02EB8001D1F8001C01F0400171B102EB8001D1F8001C48F625
:205660008F72114048F2C00211430D4B03EB8002C2F8001C704710B5094B03EB8002D2F8E0
:20568000002C48F68F731A4048F280031A430A43034C04EB8003C3F8002C10BD405C00408C
:2056A000005000400146FC4A02EB8100D0F8000C00F00F00704710B54A105200F74B1B689F
:2056C0009BB203EBC003F64C44F8132010BD10B54A105300F14A126892B202EBC002121D05
:2056E000EF4C44F8123010BD0146EC48006880B200EBC100EA4A32F8100080B270470146C5
:20570000E648006880B200EBC100001DE44A32F8100080B27047E14A126892B202EBC0020F
:20572000921CDF4B43F81210704702463E290BDD481101F01F030BB9431E98B24FF4004385
:2057400043EA8023136007E0481001F001030BB1431C98B283021360704710B50246CF489A
:20576000006880B200EBC200801DCD4C04EB40033E290BDD481101F01F040CB9441EA0B2C5
:205780004FF4004444EA80241C6007E0481001F001040CB1441CA0B284021C6010BD01467A
:2057A000BE48006880B200EBC100801CBC4A32F81000C0F3090070470146B848006880B26D
:2057C00000EBC100801DB64A32F81000C0F30900704730B54B105B00B04C2468A4B204EB6B
:2057E000C004AF4D45F8143053105C00AB4B1B689BB203EBC0031B1D45F8134030BD10B5B8
:205800004A105200A54B1B689BB203EBC003A44C44F8132010BD10B54A1053009F4A12686A
:2058200092B202EBC002121D9D4C44F8123010BD01469A48006880B200EBC100984A32F897
:20584000100080B2704701469448006880B200EBC100001D924A32F8100080B2704730B5E5
:205860000B46012B1FD18D49096889B201EBC001891C8B4D05EB41043E2A0BDD511102F036
:205880001F050DB94D1EA9B24FF4004545EA8125256007E0511002F001050DB14D1CA9B2B4
:2058A0008D0225600AE0022B08D17C49096889B201EBC001891C7A4C44F81120012B1FD1D2
:2058C0007649096889B201EBC001891D744D05EB41043E2A0BDD511102F01F050DB94D1E1B
:2058E000A9B24FF4004545EA8125256007E0511002F001050DB14D1CA9B28D0225600AE0AB
:20590000022B08D16549096889B201EBC001891D634C44F8112030BD30B5034601291FD183
:205920005E48006880B200EBC300801C5C4D05EB40043E2A0BDD501102F01F050DB9451E10
:20594000A8B24FF4004545EA8025256007E0501002F001050DB1451CA8B2850225600AE05E
:20596000022908D14D48006880B200EBC300801C4B4C44F8102030BD30B5034601291FD172
:205980004648006880B200EBC300801D444D05EB40043E2A0BDD501102F01F050DB9451EDF
:2059A000A8B24FF4004545EA8025256007E0501002F001050DB1451CA8B2850225600AE0FE
:2059C000022908D13548006880B200EBC300801D334C44F8102030BD01463048006880B230
:2059E00000EBC100801C2E4A32F81000C0F30900704701462948006880B200EBC100801D9F
:205A0000274A32F81000C0F30900704701462348006880B200EBC100801D214A32F810002E
:205A200000F47C4008B1012070471C48006880B200EBC100801C1A4A32F81000C0F3090085
:205A400008B10220F0E70020EEE710B5012910D1114B03EB8002D2F8002C48F68F731A4073
:205A600048F2C0031A430C4C04EB8003C3F8002C11E002290FD1084B03EB8002D2F8002C66
:205A800048F68F731A404CF280031A43024C04EB8003C3F8002C10BD00500040505C00405E
:205AA00000600040024641EA022070470146CAB20B1243EA0220704700201D4908604FF4E3
:205AC0003F401C490880084600881949091F0860002070472DE9F04104460E46154604F087
:205AE0007F00FFF701FE0746AAB239463046FFF7B1FBA9B204F07F00FFF70DFE0020BDE85E
:205B0000F0812DE9F04104460E46002504F07F00FFF752FE054604F07F00FFF7F0FD074663
:205B20002A4639463046FFF7AFFB2846BDE8F081445C00402E02002010B54FF48020FEF70F
:205B400050FB10BD10B500F02DFD10BD10B50120FDF7C6FD0121C805FDF76FFE10BD10B502
:205B600058A004F021F903205D49086010BD10B55C4C5DA004F018F9A07A18B10520584909
:205B8000086002E001205649086010BD0EB54FF48020FEF726FB4FF48020009008208DF8EA
:205BA000050001208DF806006846FEF7A3FA14208DF8080001208DF8090000208DF80A00D5
:205BC00001208DF80B0002A8FEF797F82A208DF8080000208DF8090002A8FEF78EF80EBD71
:205BE00010B504461CB146A004F0DEF802E04AA004F0DAF810BD10B5044601210420FDF771
:205C00000FFE3CB14A48006880B220F002004849086014E04648006880B240F00200444978
:205C200008604448006820F47F20424908600846006840F44C30086000203F49086010BDB7
:205C400030B50B46002100BF16E00A24B4EB107F05D9302404EB107403F8114005E04124A1
:205C600004EB10740A3C03F81140000100254C00641C1D554C1CE1B29142E6DB30BD70B51A
:205C80002E480468001D0568001D0668344454B108222B492046FFF7D3FF042228491031EC
:205CA0002846FFF7CDFF70BD0020264908607047012024490860704710B523A004F074F844
:205CC00010BD000075736220656E746572206C6F7720706F776572206D6F64650D0A0000D4
:205CE00004040020A81F00206C65617665206C6F7720706F776572206D6F64650D0A0000ED
:205D00007573622070756C6C20757020656E61626C650D0A000000007573622070756C6C92
:205D20002075702064697361626C650D0A000000405C004004080140B0012142E8F7FF1F19
:205D40001E03002088812242555342204E6F74436F6E666967757265640D0A0001460022D4
:205D600011B1012902D100E002E001E00120704700BF1046FBE72DE9F047074614461D469B
:205D8000DDE9089817B1012F14D109E04FEA6822600A40EAC5514846FCF736FC06460CE07F
:205DA0004FEA6822600A40EAC5514846FCF72CFC064602E00120BDE8F08700BF0EB10120C3
:205DC000F9E70020F7E72DE9F047074614461D46DDE9089817B1012F14D109E04FEA68229F
:205DE000600A40EAC5514846FCF7D6FB06460CE04FEA6822600A40EAC5514846FCF7CCFBBA
:205E0000064602E00120BDE8F08700BF0EB10120F9E70020F7E7014611B1012904D101E0B1
:205E2000002070470020FCE70120FAE72DE9FC4104460D4616469F48007890B99E4850F864
:205E40002400A5FB00109D4AC2E900109A4850F82400A6FB00109A4AC2E90010012095492F
:205E600008709448007801285CD19648006820BB914830F8240080B293490968CDE9001075
:205E80008E480CC82046FFF79EFFC7B22FB18F48007840F008008D49087040228A48016894
:205EA0008120FFF717FE844850F8240040388549086040208649086012E083480068844AC6
:205EC0001268811840228120FFF704FE7D48006840387C4908607E48006840307C49086017
:205EE00040210120FFF717FC30210120FFF731FA7248D0E9003040229A1840F100006F49E4
:205F0000C1E900206E48D0E90010403960F100006B4AC2E900106F48806840386D49886049
:205F2000FFF7C2FE6648D0E90010002359405840014310D100206349086065490860002150
:205F40005E4A11605160032063490870002059490870FFF7ADFEBDE8FC812DE9FC47044690
:205F60000D4616465D48006800F1400A5148007890B9514850F82400A5FB0010584AC2E9CE
:205F800000104D4850F82400A6FB0010554AC2E900100120474908704648007801286FD14D
:205FA00000205149086012E04F4801680068401C4D4A10604D480068415C43480068474AE4
:205FC0001268815445480068401C44490860434800685045E8D34248D0E900304449098858
:205FE000591840F100003E4AC2E900103D48D0E900203F490988511A60F10000394AC2E95B
:2060000000102D4850F824703A460023354903C903F02FFE00214A404B401A4322D100206C
:206020002E490860244830F8240080B226490968CDE90010204850F824102948D0E90030B3
:206040005F1A60F100033A462046FFF794FE00F0FF09B9F1000F05D01C48007840F004006F
:206060001A4908701B48806821490988401A194988604FF440510220FFF789F9FFF714FEE5
:206080001848D0E90010002359405840014303D01148007804280AD1002010490860012191
:2060A00000F028F8002003490870FFF701FEBDE8FC87000058020020400200206802002069
:2060C00070020020480200205C020020600200204C020020E41F0020080300205002002096
:2060E0007802002080020020540200200C0300201003002070B505460C46FD48FD490860D7
:20610000084605730D228120FFF7E4FC0520FA4908702CB10420087030210120FFF719F940
:2061200070BD10B5F548007840F01000F3490870F148007802281BD003282ED0042802D0D7
:20614000052834D100E000BF0020EB4908704FF440510220FFF71BF90220FFF75AF9B0F592
:20616000805F04D14FF440510220FFF710F91FE0E348C07B28280ED1E048007840F0020010
:20618000DE490870DE49487BDE490A68DE49096800F0A9FD00BF00BF0AE001210020FFF70F
:2061A000A9FF4FF440510220FFF7F1F800E000BF00BF10BD10B5044624B1012C07D0022C21
:2061C00015D10AE010210120FFF7C3F810E04FF480510220FFF7DBF80AE010210120FFF7CB
:2061E000B8F84FF480510220FFF7D1F800E000BF00BF10BD10B5002405E0C4480068005D30
:20620000BF490855641CC24800888442F5D3BC484068B8494860BA4880688860BC480088C6
:206220001F280FD00220FFF7C5FF0020B4490860487B1A22052100F06EFC00210120FFF720
:2062400059FF10BDAE48C07B282803D0AC48C07B2A2816D1AA48407C0106A948807C41EA90
:206260000041A748C07C41EA0020A549097D0843A5490860A248C17D807D41EA0020A149F8
:2062800008609F480068A34988426FD19C48407BA1490968884207D89948807B012803DBCB
:2062A0009748807B10280DDD0220FFF783FF9449487B2422052100F02EFC00210120FFF7EA
:2062C00019FFE8E08E48C07B25285FD01BDC15286FD00EDC08286DD006DC00285BD0032827
:2062E00030D0042867D176E00A286ED01228F9D12DE01A380A285ED2DFE800F0392EB17D63
:2063000033B1B1B1B1438A286FD00EDC552867D006DC282844D02A284ED02F28E2D155E0BF
:206320005A2829D08828DDD176E0A8286DD004DC8F286FD09E28D5D173E0AA287BD0AF2898
:20634000D0D182E06E49487B00F078FC95E06C49487B00F0C5FB90E06949487B00F07DFC71
:206360008BE06749487B00F078FC86E086E06449487B00F055FC80E06149487B00F057FC4E
:206380007BE05F49487B00F0CAFB76E05C49487B00F001FC71E05A49487B00F047FD6CE0A0
:2063A0005749487B57490A685749096800F09BFC63E01BE024E052E05149487B51490A68F3
:2063C0005149096800F0C6FC57E02FE04C49487B00F0F7FC51E04A49487B00F041FD4CE09E
:2063E0004749487B00F052FD47E029E04449487B00F04CFD41E04249487B00F047FD3CE093
:206400003F49487B00F042FD37E03D49487B00F03DFD32E01EE00EE03949487B00F036FD12
:206420002BE03749487B00F031FD26E03449487B00F02CFD21E03249487B00F027FD1CE042
:206440002F49487B00F022FD17E02D49487B00F01DFD12E02A49487B00F018FD0DE002207C
:20646000FFF7A8FE2649487B2022052100F053FB00210120FFF73EFE00BF0CE00220FFF771
:2064800099FE1F49487B2022052100F044FB00210120FFF72FFE00BFD3E610B5174800782A
:2064A00040F01000154908701548C47B174801680220FFF726FB164908800F48007810B1B2
:2064C000012839D102E0FFF795FE43E02A2C25D10A48007840F00100084908700849487BD7
:2064E00008490A680849096800F034FC32E0000055534253E41F00200803002060020020D8
:20650000C41F002018030020140300200C0300201003002055534243740300200120FFF7C9
:2065200049FE1949487B2422052100F0F4FA00210220FFF7DFFD0DE00220FFF73BFE1249F7
:20654000487B2422052100F0E6FA00210220FFF7D1FD00BF00BF10BD70B505460C462246C0
:2065600029468120FFF7B6FA30210120FEF7F1FE03200649087006488068001B044988609F
:206580000020087370BD0000C41F002008030020E41F002010B5FFF7C4FD10BD10B5FFF7DE
:2065A0007CFF10BD10B537480068374908800846008800F4004035490988084008B1FEF7D0
:2065C000ABFC3148008800F4806030490988084030B14FF6FF302B4908602D4948688047CF
:2065E0002948008800F4005028490988084018B14DF6FF70234908602348008800F480500E
:2066000022490988084030B14EF6FF701D490860002000F0F8F91C48008800F400601B492F
:206620000988084060B11B48007810B100F095F902E0022000F0E7F94FF2FF701149086010
:206640001148008800F4007010490988084040B14FF6FF500B4908600F480078401C0E4900
:2066600008700948008800F4807008490988084030B14FF6FF6003490860072000F0C3F9AF
:2066800010BD0000445C0040380300202E02002078030020080400203A03002010B5FFF7C3
:2066A000EEFA00208C490968887200F02DF9FFF703FA00208949086010BD10B500208849AC
:2066C00088728848C0798449096848720020FEF70DFE4FF400710020FEF722FE2021002055
:2066E000FEF737FE18210020FEF7F1FF7E4890F82C100020FFF731F858210020FEF7DBFF01
:206700000020FEF7E3FE0020FEF7A4FE00210120FEF706FE98210120FEF7CDFF2021012094
:20672000FEF717FE00210120FEF731FE00210220FEF7F6FDD8210220FEF7C9FF6A4890F8AC
:206740002C100220FFF709F84FF440510220FEF71EFE00210220FEF7FCFD634890F82C103D
:206760000020FEF7FAFF0020FEF774FE0020FEF726FB0120594908605C485D490860002051
:206780005C490870FFF798FA10BD10B552480068807A58B10520514908600120FEF753FF2E
:2067A0000220FEF738FF00205249087010BD10B54F4800684D49884202D00220FFF7FAFC87
:2067C00010BD042045490860704770477047014629B90120404A1268108200207047464868
:2067E000FCE770B5054600243B480068007800F07F00212811D1FE2D0FD13748006840886B
:2068000058B935480068808838B933480068C088012802D1AFF2490401E0022070BD0CB97F
:206820000220FBE72C480068846100212A48006841820020A0470020F0E710B5044626485A
:206840000068007800F07F0021281AD1FF2C18D1214800684088A0B91F480068808880B99F
:206860001D480068C08860B90120FEF7ECFE0220FEF7D1FE1D481E49086000201D490870D2
:2068800010BD0220FCE70246002901DD02207047002A01DD0220FAE70020F8E710B50446E5
:2068A00016492046FDF781FF10BD10B5044614492046FDF77AFF10BD70B5054606480068A0
:2068C000C478052C01DD002070BD0E4800EBC4012846FDF76AFFF7E7240200200404002003
:2068E000A81F002086C900087803002055534243C41F00200803002074030020CC030020DE
:20690000D4030020DC03002010B50120FFF768F901246D48046000206C49088008460088D3
